:100000000C308A00FE2C00000A108A100A118207A8
:1000100028340C34013406342A152A15AA23BA12BE
:10002000301731332A152A152A000C1020284129AF
:100030005310D422432400000C001F308400831787
:100040000008031930280630F800F701F70B2628BE
:10005000F80B25287B30F700F70B2C28800B232882
:1000600008000317260EF039F7000F3003130805B8
:1000700077048800000008140230F700F70B3E28D0
:1000800041280000081008000808F700080E0F3982
:10009000F8000800831608108810081183128810D1
:1000A0000F3083160805F038880083120815000009
:1000B00008140000442078080317A6000313081052
:1000C00000000814632864280000442078080317FF
:1000D000A500031308100F3083160805880083124B
:1000E0000317260EF700F030F70577082504F8000F
:1000F0007808A500A51F7E280313502823188328FD
:10010000031388100317231C88280313881403176C
:10011000000003130811000008100317240EA500A7
:100120000F30A5052508A600031331200317240866
:100130000F39A500A6000313312008000F308316E5
:10014000080588000810881008118312881008110B
:1001500008100F3003179F0003131D2001300317F1
:1001600090001008033C031CC1280330A6000313B1
:100170003120053003179F0003131D200317900A39
:10018000B1280230A60003133120053003179F0069
:1001900003131D20031790011008033C031CDD28E6
:1001A00010080313042003179100A3011108A400F1
:1001B00003134A200317900ACC2803138A150A1246
:1001C000602D0317200BE528E8284030A100E9281E
:1001D000A10101301F02A10721088038A200A3015C
:1001E0002208A40003134A20080003171E08073A38
:1001F0000313031905290B3A03190C29063A0319AD
:100200001829023A031920292729013003179F00D2
:10021000A0000313E1202E290317A3010130A4003D
:1002200003134A20023003179F0003131D202E29B9
:10023000013003179F000230A0000313E1202E2994
:100240000317A3011030A40003134A202E29013004
:100250000317A3001E08A40003134A2008000B087C
:100260000317900003138B13831603178C170C14BA
:100270000000000083120C087F3903196C299100DB
:100280000D0892000F08930011089E000313F5203B
:10029000031712088D0013088F0083168C170C1497
:1002A0000000000083120C0D0E0D7F3903196C291C
:1002B00091000D0892000F08930011089E0003138F
:1002C000F520031712088D0013088F008D0A0319FB
:1002D0008F0A031334290317901F712903138B17F7
:1002E0000317031308008E30F70003171208F800F5
:1002F0001108F900FA01F808031D88297908F800A7
:10030000F9010830F702F808031D8829F701902940
:100310000310F81B8F29F90DF80DF7038829F8133E
:100320000313080003171E080319032AA600220856
:100330000319032AA6070318A4297F30A602031C69
:10034000032A0319032AA8298130A6070318032AC0
:100350002608F700F801F901FA011F08AA00AA17F8
:100360002008A9002108A8001830A600A701281C11
:10037000D1292508FA07031CC329F90A031DC3293B
:10038000F80A0319A7172408F907031CCA29F80A51
:100390000319A7172308A000A0172008F8070318BF
:1003A000A717A70DF80CF90CFA0CAA0CA90CA80CAD
:1003B0000310A60BB6290130F7070318032AF81B10
:1003C000E829AA0DFA0DF90DF80DF7030319032A10
:1003D000AA1FF929FA0A031DF929F90A031DF929A7
:1003E000F80A031DF929F80CF90CFA0CF70A03199D
:1003F000032A1F08A7002308A706A71F012AF8172A
:10040000072AF813072AF701F801F901FA01031383
:1004100008008030831C0F2A03179A060313031762
:100420009F01A00116089E001A089E0615080319D0
:10043000FD2A9D00F70019080319062B9D020319D8
:10044000A22A031C602A1A08A300A3171B08A200F3
:100450001C08A100A0010310A30CA20CA10CA00C6D
:100460009D0B2A2A9E1F372A1F141A2B1F101D109E
:100470001F161830840083172F2B1F129E1B4A2A29
:100480001D1C552AA30CA20CA10CA00CF70A0319E1
:10049000152B552AA31B582A0310A00DA10DA20D40
:1004A000A30DF7030319152B4A2A1F17C22A1F137E
:1004B00016089E009E1F5E2AA3170E2BA3130E2B59
:1004C00019089D00F70015089D021608A300A31740
:1004D0001708A2001808A100A0010310A30CA20C89
:1004E000A10CA00C9D0B6C2A9E1F792A9F141A2B1D
:1004F0009F101D109F161C30840083172F2B9F12F6
:100500009E1B8C2A1D1C972AA30CA20CA10CA00CCC
:10051000F70A0319152B972AA31B9A2A0310A00D7B
:10052000A10DA20DA30DF7030319152B8C2A9F17FC
:10053000C22A9F131A089E009E1FA02AA3170E2BE3
:10054000A3130E2B1A08A300A3171B08A2001C0854
:10055000A1009E1FAF2AA3131F151A2B1F11A00164
:100560001D101830840083172F2B9E1BD82A1608C5
:100570009E001D1CC22AA30CA20CA10CA00CF70A01
:100580000319152BA01FD32AA10A031DD32AA20ADF
:10059000031DD32AA30A031DD32AA30CA20CA10C6A
:1005A000F70A0319152B1F1B572A9F1B992AF72A95
:1005B0008030A306A31FE02A1A2B1A089E00ED2AFA
:1005C00016089E00A308031DED2AA208031DED2AAC
:1005D000A108031DED2AF7010E2BA31BF72A031018
:1005E000A00DA10DA20DA30DF70BED2A152B9E1F3B
:1005F000FB2AA3170E2BA3130E2B1908F7001A08BA
:10060000A3001B08A2001C08A1000E2B1508F70070
:100610001608A3001708A2001808A1002308F80074
:100620002208F9002108FA004D2BF701F801F90121
:10063000FA014D2BA001A109A209A309A009A00A52
:10064000031D282BA10A031D282BA20A0319A30AA4
:100650001F18362A9F18782A1F19AE2ADD2A00088B
:10066000A107031C392BA20A031D392BA30A031966
:100670001D1484030008A207031C412BA30A0319BD
:100680001D1484030008801F803AA30703181D145B
:100690001F1A3D2A9F1A7F2AB52A03130800031741
:1006A00011080319152C9D0015080319152C9D021E
:1006B000031C5F2B7F309D070318152C652B8130A1
:1006C0009D02031C152C0319152C1D08F700F801B9
:1006D000F901FA019C0112089B009B1713089A006C
:1006E0001408990019309D00180899020318882BE6
:1006F00001309A020318882B9B020318882B9C0256
:100700000318882B9C0A9B0A9A0A18089907BA2B87
:1007100017089A020318A32B01309B020318A32B7E
:100720009C020318A32B9C0A9B0A17089A07180817
:100730009907031CBA2B9A0A031DBA2B9B0A031DA7
:10074000BA2B9C0ABA2B160880389B020318B92BC7
:1007500001309C020318B92B9C0A160880389B07AD
:1007600017089A07031C972B9B0A031D972B9C0ABB
:10077000972B7A149D0BBD2BC82B0310990D9A0D46
:100780009B0D9C0D0310FA0DF90DF80D9E0D742BA9
:100790001E1CD02B0310F80CF90CFA0C9E0CD32B5A
:1007A000F7030319152C9E1BFC2B0310990D9A0DB2
:1007B0009B0D9C0D180899020318E82B01309A0232
:1007C0000318E82B9B020318E82B9C02031C0B2C3C
:1007D00017089A020318F32B01309B020318F32B1E
:1007E0009C02031C0B2C160880389B020318FC2B60
:1007F00001309C02031C0B2CFA0A031D0B2CF90A76
:10080000031D0B2CF80A031D0B2CF70A0319152CDA
:10081000F80CF90CFA0C12089D0016089D069D1F95
:10082000132CF817192CF813192CF701F801F901FA
:10083000FA01031308008318202C26308400831744
:10084000F701F801F901FA010317A601A701A801B0
:10085000A901250824042304220403195F2C203055
:10086000AA0003109E0D9F0DA00DA10DA60DA70DB2
:10087000A80DA90D25082902031D482C24082802CB
:10088000031D482C23082702031D482C220826029A
:10089000031C592C2208A6022308031C230FA702BD
:1008A0002408031C240FA8022508031C250FA902F5
:1008B0000314F70DF80DF90DFA0DAA0B312C2608CB
:1008C0008000840A27088000840A28088000840A9F
:1008D0002908800003130800040803179600150870
:1008E000980003198E2C1408A1001308A000120808
:1008F0009F0011089E00A501A4012030A3008230B2
:10090000A200031392217A08031794007908930038
:100910007808920077089100980B732C1408A100B6
:100920001308A00012089F0011089E001E08B63C84
:100930009E00FA011F08A2009F1703109F0CA00C35
:10094000A10CFA0CF90CF80CF70C9E0B9D2CA21FB5
:10095000B42CF709F809F909FA09F70A0319F80A92
:100960000319F90A0319FA0A7A089400790893001E
:100970007808920077089100941FCB2C9603961666
:100980009109920993099409910A0319920A03198A
:10099000930A0319940A3B309D009A309C00CA3098
:1009A0009B009A010A30980015080319960A8314CF
:1009B0001130840083171408A1001308A000120846
:1009C0009F0011089E001D08A5001C08A4001B081C
:1009D000A3001A08A20003131B247808F708031DBC
:1009E000082D0317150A1802031DF82C0313082DF0
:1009F000160803190B2D0F3918020319012D0318BE
:100A0000432D961B432D161B0B2D20303D2D03131C
:100A1000203003179605961E1B2D96121508031DF0
:100A20009603770896002D309E000313F5200317D8
:100A30001608F700960115081802031D2B2D7708DC
:100A400096002E309E000313F52003171608F700BA
:100A50002030960500303030961E3D2D9612150838
:100A6000031D9603770896002D309E000313F52092
:100A700003171608F70096013030F70777089E0035
:100A80000313F520031783101D08A1001C08A00004
:100A90001B089F001A089E00A501A401A3010A30AB
:100AA000A20003131B247A0803179D0079089C00F9
:100AB00078089B0077089A00980BD72C031308003E
:100AC000900185309000031790011008093C031C29
:100AD000D52D721072088316031387008312071432
:100AE0001830F700F70B722D752D721072088316EF
:100AF000870083120710F21472088316870083128E
:100B0000871C7B2D8E018F018E01F21472088316D3
:100B1000870083128718852D0F08FA000E08F7004A
:100B20000F087A02031D8C2D7708A2007A08A30013
:100B300023080317920003132208031791000313DD
:100B400073217A080317A1007908A00078089F0094
:100B500077089E00B330A5007B30A4007230A3005C
:100B60007630A200031392217A08AD007908AC0018
:100B70007808AB007708AA000317100DF700F70DEF
:100B8000FC30F7057708323E8400831303132A08EC
:100B90008000840A2B088000840A2C088000840AC4
:100BA0002D0880000317900A652D83100313350864
:100BB000031798000313340803179700031333082F
:100BC000031796000313320803179500031339081F
:100BD00003179C000313380803179B0003133708FF
:100BE00003179A0003133608031799000313092209
:100BF0007A08031794007908930078089200770820
:100C000091008310140898001308970012089600AA
:100C10001108950003133D0803179C0003133C08BB
:100C200003179B0003133B0803179A0003133A08AA
:100C300003179900031309227A080317940079080F
:100C400093007808920077089100831014089800A8
:100C50001308970012089600110895000313410825
:100C600003179C000313400803179B0003133F085E
:100C700003179A0003133E08031799000313092270
:100C80007A0803179400790893007808920077088F
:100C9000910083101408980013089700120896001A
:100CA000110895000313450803179C00031344081B
:100CB00003179B000313430803179A00031342080A
:100CC00003179900031309227A080317940079087F
:100CD0009300780892007708910083101408980018
:100CE000130897001208960011089500031349088D
:100CF00003179C000313480803179B0003134708BE
:100D000003179A00031346080317990003130922D7
:100D10007A080317940079089300780892007708FE
:100D20009100831014089800130897001208960089
:100D30001108950003134D0803179C0003134C087A
:100D400003179B0003134B0803179A0003134A0869
:100D500003179900031309227A08031794007908EE
:100D60009300780892007708910083101408980087
:100D700013089700120896001108950003135108F4
:100D800003179C000313500803179B0003134F081D
:100D900003179A0003134E0803179900031309223F
:100DA0007A0803179400790893007808920077086E
:100DB00091008310140898001308970012089600F9
:100DC000110895000313550803179C0003135408DA
:100DD00003179B000313530803179A0003135208C9
:100DE00003179900031309227A080317940079085E
:100DF00093007808920077089100831014089800F7
:100E0000130897001208960011089500031359085B
:100E100003179C000313580803179B00031357087C
:100E200003179A00031356080317990003130922A6
:100E30007A08DD007908DC007808DB007708DA0042
:100E40005D080317940003135C0803179300031352
:100E50005B080317920003135A08031791009801C7
:100E60009701203096008230950003134F237A08B3
:100E7000E9007908E8007808E7007708E600013023
:100E800003179F000230A0000313E1205330031723
:100E90009E000313F520673003179E000313F5200F
:100EA0003A3003179E000313F520C9308400690807
:100EB00003179400031368080317930003136708CC
:100EC0000317920003136608031791000130950081
:100ED00003136C24203003179E000313F5208A159A
:100EE0000A12802D0B080317920003138B1383162D
:100EF00003178C170C140000000003189D2F831299
:100F00000C087F3993000D0894000F089500130812
:100F10009E000313F520031714088D0015088F0099
:100F200083168C170C14000000008312910B992F6C
:100F30009B2F83169D2FB82F831683120C0D0E0D39
:100F40007F3993000D0894000F08950013089E0048
:100F50000313F520031714088D0015088F008D0A60
:100F600003198F0A0310910BB62FB82F0313772F95
:0E0F7000921FBD2F03138B17031703130800E6
:10100000900185309000031790011008093C031CE3
:10101000792872117208831603138700831207154B
:101020001830F700F70B1228152872117208831672
:10103000870083120711F215720883168700831246
:10104000871D1B288E018F018E01F21572088316F1
:1010500087008312871925280F08FA000E08F70069
:101060000F087A02031D2C287708A0007A08A10037
:1010700021080317920003132008031791008A1117
:10108000031373218A157A080317A1007908A000B9
:1010900078089F0077089E00B330A5007B30A4003D
:1010A0007230A3007630A2008A11031392218A15B0
:1010B0007A08A9007908A8007808A7007708A60090
:1010C0000317100DF700F70DFC30F7057708A03E69
:1010D00084008313031326088000840A27088000F5
:1010E000840A28088000840A290880000317900ACF
:1010F000052883108316031323088312031798000F
:101100008316031322088312031797008316031311
:1011100021088312031796008316031320088312F5
:1011200003179500831603132708831203179C00E7
:10113000831603132608831203179B0083160313D9
:101140002508831203179A008316031324088312B9
:10115000031799008A11031309228A157A080317C5
:101160009400790893007808920077089100831022
:1011700014089800130897001208960011089500AB
:10118000831603132B08831203179C008316031383
:101190002A08831203179B0083160313290883125E
:1011A00003179A0083160313280883120317990064
:1011B0008A11031309228A157A0803179400790803
:1011C0009300780892007708910083101408980023
:1011D0001308970012089600110895008316031350
:1011E0002F08831203179C00831603132E08831203
:1011F00003179B00831603132D08831203179A000D
:10120000831603132C088312031799008A11031302
:1012100009228A157A080317940079089300780840
:101220009200770891008310140898001308970023
:1012300012089600110895008316031333088312D1
:1012400003179C00831603133208831203179B00B5
:10125000831603133108831203179A0083160313AE
:1012600030088312031799008A11031309228A1583
:101270007A08031794007908930078089200770899
:101280009100831014089800130897001208960024
:1012900011089500831603133708831203179C0067
:1012A000831603133608831203179B008316031358
:1012B0003508831203179A00831603133408831228
:1012C000031799008A11031309228A157A08031754
:1012D00094007908930078089200770891008310B1
:1012E000140898001308970012089600110895003A
:1012F000831603133B08831203179C008316031302
:101300003A08831203179B008316031339088312CC
:1013100003179A00831603133808831203179900E2
:101320008A11031309228A157A0803179400790891
:1013300093007808920077089100831014089800B1
:1013400013089700120896001108950083160313DE
:101350003F08831203179C00831603133E08831271
:1013600003179B00831603133D08831203179A008B
:10137000831603133C088312031799008A11031381
:1013800009228A157A0803179400790893007808CF
:1013900092007708910083101408980013089700B2
:1013A0001208960011089500831603134308831250
:1013B00003179C00831603134208831203179B0034
:1013C000831603134108831203179A00831603132D
:1013D00040088312031799008A11031309228A1502
:1013E0007A08031794007908930078089200770828
:1013F00091008310140898001308970012089600B3
:1014000011089500831603134708831203179C00E5
:10141000831603134608831203179B0083160313D6
:101420004508831203179A00831603134408831296
:10143000031799008A11031309228A157A08E1001B
:101440007908E0007808DF007708DE0061080317FC
:101450009400031360080317930003135F08031736
:10146000920003135E080317910098019701203042
:101470009600823095008A1103134F238A157A084B
:10148000ED007908EC007808EB007708EA000A30F4
:1014900003179F000230A0008A110313E1208A1570
:1014A000533003179E008A110313F5208A156C3000
:1014B00003179E008A110313F5208A153A3003178B
:1014C0009E008A110313F5208A15C93084006D0827
:1014D0000317940003136C080317930003136B089E
:1014E0000317920003136A08031791000130950057
:1014F0008A1103136C248A158A150A128F2D900104
:1015000085309000031790011008093C031CF82A4D
:10151000F21272088316031387008312871618309D
:10152000F700F70B912A942AF212720883168700AB
:101530008312871272167208831687008312071EA1
:101540009A2A8E018F018E01721672088316870007
:101550008312071AA42A0F08FA000E08F7000F08D2
:101560007A02031DAB2A7708A4007A08A500250893
:101570000317920003132408031791008A11031321
:1015800073218A157A080317A1007908A00078084A
:101590009F0077089E00B330A5007B30A400723016
:1015A000A3007630A2008A11031392218A157A08CB
:1015B000B1007908B0007808AF007708AE000317D3
:1015C000100DF700F70DFC30F7057708C83E8400D2
:1015D000831303132E088000840A2F088000840AD6
:1015E00030088000840A310880000317900A842A9A
:1015F0008310831603134B08831203179800831676
:1016000003134A088312031797008316031349082C
:1016100083120317960083160313480883120317D7
:101620009500831603134F08831203179C0083163B
:1016300003134E08831203179B00831603134D08F0
:10164000831203179A00831603134C08831203179F
:1016500099008A11031309228A157A080317940046
:101660007908930078089200770891008310140895
:101670009800130897001208960011089500831629
:1016800003135308831203179C0083160313520895
:10169000831203179B008316031351088312031749
:1016A0009A008316031350088312031799008A11B6
:1016B000031309228A157A08031794007908930006
:1016C0007808920077089100831014089800130896
:1016D0009700120896001108950083160313570807
:1016E000831203179C0083160313560883120317F3
:1016F0009B00831603135508831203179A00831661
:10170000031354088312031799008A110313092243
:101710008A157A08031794007908930078089200D4
:101720007708910083101408980013089700120896
:10173000960011089500831603135B0883120317A4
:101740009C00831603135A08831203179B00831609
:1017500003135908831203179A00831603135808BA
:101760008312031799008A11031309228A157A0834
:101770000317940079089300780892007708910085
:101780008310140898001308970012089600110897
:101790009500831603135F08831203179C008316BA
:1017A00003135E08831203179B00831603135D085F
:1017B000831203179A00831603135C08831203171E
:1017C00099008A11031309228A157A0803179400D5
:1017D0007908930078089200770891008310140824
:1017E00098001308970012089600110895008316B8
:1017F00003136308831203179C0083160313620804
:10180000831203179B0083160313610883120317C7
:101810009A008316031360088312031799008A1134
:10182000031309228A157A08031794007908930094
:101830007808920077089100831014089800130824
:101840009700120896001108950083160313670885
:10185000831203179C008316031366088312031771
:101860009B00831603136508831203179A008316DF
:10187000031364088312031799008A1103130922C2
:101880008A157A0803179400790893007808920063
:101890007708910083101408980013089700120825
:1018A000960011089500831603136B088312031723
:1018B0009C00831603136A08831203179B00831688
:1018C00003136908831203179A0083160313680829
:1018D0008312031799008A11031309228A157A08C3
:1018E0000317940079089300780892007708910014
:1018F0008310140898001308970012089600110826
:101900009500831603136F08831203179C00831638
:1019100003136E08831203179B00831603136D08CD
:10192000831203179A00831603136C08831203179C
:1019300099008A11031309228A157A08E5007908AB
:10194000E4007808E3007708E200650803179400D4
:10195000031364080317930003136308031792002B
:101960000313620803179100980197012030960035
:10197000823095008A1103134F238A157A08F100EB
:101980007908F0007808EF007708EE0001300317BF
:101990009F00A0008A110313E1208A150C30031761
:1019A0008D0000308F000310073091008A1103135F
:1019B00072278A15C93084007108031794007008D3
:1019C000930003136F080317920003136E080317A5
:1019D0009100013095008A1103136C248A1512308E
:1019E00003178D0000308F000310053091008A111D
:1019F000031372278A158A150A129D2DDD01DC0159
:101A0000DB01DA01E101E001DF01DE01E501E401D2
:101A1000E301E201E901E801E701E601ED01EC0182
:101A2000EB01EA01F101F001EF01EE01FF30F200FC
:101A300083161F149F141F159F1107309C008313DA
:101A40001F3083058312A901A801A701A601A101E6
:101A5000A001AD01AC01AB01AA01A301A201831653
:101A6000091283129412F2127208831687007216FA
:101A700072088700F2117208870001308312940007
:101A80000030831694000108C0398100853083122C
:101A900090000030F800920000308316920007306A
:101AA0009C00050885001030F700F70B552D00004D
:101AB0001C0883120D1383169D018A1183129E2820
:101AC0008A15153003178D0000308F008A1103131B
:101AD0002F218A15023003179000FA309F008A11D7
:101AE00003131D208A150317900B6D2D1C308D00DC
:101AF00000308F008A1103132F218A158A11602D5F
:101B00008A15023003179000FA309F008A110313E0
:101B10001D208A150317900B842D03130028023013
:101B200003179000FA309F008A1103131D208A15B5
:101B30000317900B922D03137F2A02300317900096
:101B4000FA309F008A1103131D208A150317900B8A
:081B5000A02D03137E2D63009C
:02400E00323F3F
:00000001FF
;PIC16F877A
;CRC=07B7  CREATED="19-Ara-19 20:45"
